:020000040000FA
:100000000000022883160313FF30850086010317C2
:10001000880189018312031303148601051C162825
:1000200011283420860D031C11280C283420860C3E
:10003000031C16280C28000000000000000000002F
:10004000000008000000A4302E28000040302E28B8
:100050001F302E2800000E302E280530A200A20BE3
:100060002F280800C8304128643041283230412808
:10007000143041280A3041280530412802304128F7
:100080000130A300F930A2000000A20B4428A30B0A
:1000900042280800C8305528643055283230552889
:1000A000143055280A3055280530A4006430A300C8
:1000B000F930A2000000A20B5A28A30B5828A40B69
:0400C00056280800B6
:02400E00E428A4
:02401000FF3E71
:00000001FF
