:020000040000FA
:10000000000002288316003086007F308700031727
:100010008901831203138501860187018717031461
:10002000060C86003320061C10281628060D8600B4
:100030003320861F16281028000000000000000052
:100040000000000008000000A4302F28000040300D
:100050002F281F302F2800000E302F280530A10038
:10006000A10B30280800C8304228643042283230C2
:100070004228143042280A304228053042280230F3
:1000800042280130A200F930A1000000A10B452850
:10009000A20B43280800C830562864305628323056
:1000A0005628143056280A3056280530A3006430EC
:1000B000A200F930A1000000A10B5B28A20B592877
:0600C000A30B5728080005
:0400C60000340034CE
:02400E00E428A4
:02401000FF3E71
:00000001FF
