:020000040000FA
:10000000000002288316FF3085007F3087008601BC
:100010000317880189018312031385018601870173
:10002000871703148601051C1E281628850105184C
:100030001E283F20860D031C16281628850105184A
:1000400016283F20860C031C1E281E2800000000D6
:10005000000000000000000008000000A430392863
:100060000000403039281F30392800000E30392870
:100070000530A200A20B3A280800C8304C28643092
:100080004C2832304C2814304C280A304C2805308B
:100090004C2802304C280130A300F930A2000000A7
:1000A000A20B4F28A30B4D280800C83060286430ED
:1000B000602832306028143060280A30602805300B
:1000C000A4006430A300F930A2000000A20B652850
:0A00D000A30B6328A40B61280800AD
:0400DA0000340034BA
:02400E00E428A4
:02401000FF3E71
:00000001FF
