:020000040000FA
:0400000000000428D0
:040004000034003490
:080008008316031386010317A0
:1000100088018901831203131630A0000030A2006A
:100020000301220864208600342034203420342048
:100030003420A20AA00B11280428000000000000B0
:1000400000000000000008000000A430302800007C
:10005000403030281F30302800000E303028053066
:100060008000800B31280800C830432864304328C2
:1000700032304328143043280A30432805304328BF
:100080000230432801308100F93080000000800BED
:100090004628810B44280800C83057286430572868
:1000A00032305728143057280A305728053082003C
:1000B00064308100F93080000000800B5C28810BE7
:1000C0005A28820B582808008207BF348634DB3454
:1000D000CF34E634ED34FD34C734FF34E734F7343D
:0A00E000FC34B934DE34F934F13495
:02400E00E428A4
:02401000FF3E71
:00000001FF
