:020000040000FA
:100000000000022883160313FF30850086010317C2
:1000100088018901831203130030A2000508A000A3
:10002000A1000F30A10EA005A1052108A400200801
:10003000A3002408A108031D21281E28FF308600E4
:100040000C28A00203182728FF3086000C2803196B
:100050003C28A20A2108A002031839282108A00779
:100060000310A00DA00DA00DA00D220820048600F5
:100070000C2803193C282928A20A220886000C28EB
:02400E00E428A4
:02401000FF3E71
:00000001FF
