:020000040000FA
:100000000000022883160313FF30850086010317C2
:100010008801890183120313871703148030200895
:1000200086003620060CA000061C0F281728200882
:1000300086003620060DA000861F17280F28000016
:100040000000000000000000000008000000A430D4
:1000500032280000403032281F30322800000E3095
:1000600032280530A200A20B33280800C8304528EA
:100070006430452832304528143045280A30452858
:1000800005304528023045280130A300F930A20090
:100090000000A20B4828A30B46280800C8305928A6
:1000A0006430592832305928143059280A305928D8
:1000B0000530A4006430A300F930A2000000A20BB8
:0C00C0005E28A30B5C28A40B5A28080043
:0400CC0000340034C8
:02400E00E428A4
:02401000FF3E71
:00000001FF
