:020000040000FA
:100000000000022883160313FF30850086010317C2
:1000100088018901831203130508A000A1000F3095
:10002000A10EA005A10521080F398207262828283E
:100030002A282C283028332838283E2845284928C3
:100040004F2856285E28672871287C280030882889
:1000500020088828200D88282008A00D200788283F
:10006000A00D200D88282008A00DA00D20078828AD
:100070002008A00DA00DA007200788282008A00DAB
:10008000A00DA007A00720078828A00DA00D200D17
:1000900088282008A00DA00DA00D20078828200882
:1000A000A00DA00DA00DA007200788282008A00DF6
:1000B000A00DA00DA007A007200788282008A00DEC
:1000C000A00DA00DA007A007A007200788282008E2
:1000D000A00DA00DA00DA007A007A007A007200756
:1000E00088282008A00DA00DA00DA007A007A0073C
:1000F000A007A007200788282008A00DA00DA00DAC
:10010000A007A007A007A007A007A007200788282E
:0401100086000C2831
:02400E00E428A4
:02401000FF3E71
:00000001FF
