:020000040000FA
:0400000000000428D0
:040004000034003490
:08000800831603130330850089
:100010000301860103178801890183120313051C5C
:100020001228172803148601851C27283228031458
:100030008601851C1C284828051C1228851848287C
:10004000732073207320860D031C1C281C280518A0
:10005000172885183228732073207320860C031C00
:100060002728272805181728851C27287320732080
:100070007320860D031C32283D2805181728851C7F
:100080002728732073207320860C031C3D283228F8
:100090000730A0000030A20003018601051C1228D1
:1000A000851C1C282208A32086007320732073203F
:1000B000A20AA00B4D284828000000000000000004
:1000C0000000000008000000A4306F28000040304D
:1000D0006F281F306F2800000E306F280530800019
:1000E000800B70280800C8308228643082283230A3
:1000F0008228143082280A30822805308228023073
:10010000822801308100F93080000000800B8528B2
:10011000810B83280800C830962864309628323036
:100120009628143096280A309628053082006430CC
:100130008100F93080000000800B9B28810B9928FA
:10014000820B972808008207183424344234813403
:080150008134423424341834D8
:02400E00E428A4
:02401000FF3E71
:00000001FF
