:020000040000FA
:100000000000022883160313FF30850086010317C2
:10001000880189018312031303148601051C192822
:1000200011288501051C19283A20860D031C11286A
:100030000C288501051811283A20860C031C192864
:100040000C28000000000000000000000000080074
:100050000000A43034280000403034281F303428F9
:1000600000000E3034280530A200A20B352808000D
:10007000C830472864304728323047281430472892
:100080000A30472805304728023047280130A300AE
:10009000F930A2000000A20B4A28A30B4828080050
:1000A000C8305B2864305B2832305B2814305B2812
:1000B0000A305B280530A4006430A300F930A200A8
:1000C0000000A20B6028A30B5E28A40B5C2808008C
:0400D00000340034C4
:02400E00E428A4
:02401000FF3E71
:00000001FF
