:020000040000FA
:1000000000000228860188018316031386018801F7
:100010008312C7207220102086204120C520092885
:100020004530860083204D30860083204130860095
:1000300083204E3086008320553086008320453053
:10004000860083204C308600832020308600832069
:100050005630860083204130860083204C30860055
:1000600083204530860083204E3086008320433035
:10007000860083204930860083204130860083201B
:1000800008004930860083204E30860083204730A8
:10009000860083202E308600832020308600832037
:1000A0004330860083204F30860083204D30860009
:1000B00083205030860083205530860083205430C2
:1000C00086008320413086008320433086008320D1
:1000D0004930860083204F30860083204E308600D2
:1000E000832008000810013086007E200C30860036
:1000F0007E203C3086007E200814080088148B2067
:1001000088108B20080008147E2008000810C030DA
:1001100086007E200800C830B100C830B000B00BA7
:100120008F28B10B8D28080000000000000000009F
:100130000000000008000000A430A72800004030A4
:10014000A7281F30A72800000E30A7280530800000
:10015000800BA8280800C830BA286430BA2832308A
:10016000BA281430BA280A30BA280530BA28023022
:10017000BA2801308100F93080000000800BBD28D2
:10018000810BBB280800C830CE286430CE2832301E
:10019000CE281430CE280A30CE28053082006430B4
:1001A0008100F93080000000800BD328810BD1281A
:0601B000820BCF280800BD
:02400E00E428A4
:02401000FF3E71
:00000001FF
