:020000040000FA
:10000000000002288316FF3085007F3087008601BC
:100010000317880189018312031385018601870173
:100020008717051C14281728851C1A285028851C9A
:1000300030287A28031486010518112885181128FC
:10004000060C8600BD20061C1C2826280518112831
:1000500085181128060D8600BD20861F26281C281D
:100060000314860103148601051C14288518112821
:100070008501051D4328060D8600BB20861F3428F8
:10008000322886018617051C142885181128850139
:1000900005193428060C8600BB20061C432841287D
:1000A0001530C0000030C200030186010518172872
:1000B000851C1A28420864208600BB20BB2003014F
:1000C000C20AC00B5528502882076D347734543447
:1000D0005E34503477347C34503406346D347934A3
:1000E00055343F341C34773438347934543439340B
:1000F000063477341530B0000030B20003018601B9
:10010000051C1428851C302832088E208600BB2050
:10011000BB200301B20AB00B7F287A28820777340C
:1001200054346F3479343834763479345034543428
:10013000773454345E3479345B341C3477345B3434
:1001400067343E3479345B34000000000000000066
:100150000000000008000000A430B7280000403074
:10016000B7281F30B72800000E30B7280530A2008E
:10017000A20BB8280800C830CA286430CA28323018
:10018000CA281430CA280A30CA280530CA280230C2
:10019000CA280130A300F930A2000000A20BCD282C
:1001A000A30BCB280800C830DE286430DE283230AC
:1001B000DE281430DE280A30DE280530A400643042
:1001C000A300F930A2000000A20BE328A30BE12852
:0601D000A40BDF2808006B
:0401D60000340034BD
:02400E00E428A4
:02401000FF3E71
:00000001FF
